:1000000080316128080061347E1480314E01161E53
:100010000A280B2813280C1E0E280F2813288F31AE
:10002000052780315F280B1F162817285F28191F06
:100030001A281B2826280F1F1E281F2826284101A2
:100040004F088A004E080A0080315F28991F29282E
:100050002A2835288F1F2D282E28352841014D08A4
:100060008A004C080A0080315F28191E3828392878
:1000700044280F1E3C283D284428410159088A0085
:1000800058080A0080315F28991E472848285328BD
:100090008F1E4B284C285328410157088A005608C8
:1000A0000A0080315F281A1C562857285F28101C28
:1000B0005A285B285F288F31E12780315F287E1026
:1000C000090080316328803103208031EF008C30BB
:1000D0008400233085006430FE000030FF008F3143
:1000E00021278031FA01FB014B308400003085006C
:1000F0002030FE000030FF008F3121278031A030FA
:100100008400003085002430FE000030FF008F3175
:100110002127803120308400013085004030FE00EE
:100120000030FF008F3121278031A0308400013062
:1001300085004030FE000030FF008F3121278031E4
:1001400020308400023085004030FE000030FF0087
:100150008F3121278031A03084000230850040306B
:10016000FE000030FF008F31212780317E104001DA
:100170008231F52A400129088039B3002935B900B8
:10018000A81FC328C428C528391439080319C92849
:10019000CA28D928390A031DCE28CF28D7280030ED
:1001A000A9000030A8000030A7000030A600A81762
:1001B000E1280030A9000030A8000030A70000307E
:1001C000A6002D088039AE002E08B3062D35B400E8
:1001D000AC1FEB28EC28ED28341434080319F1285F
:1001E000F2280129340A031DF628F728FF280030D9
:1001F000AD000030AC000030AB000030AA00AC17FE
:1002000009290030AD000030AC000030AB000030F8
:10021000AA00340803190D290E2913293908031DD2
:10022000122913291C290030A9000030A800003031
:10023000A7000030A600F42A2608F2002C08873117
:100240005D27803173084001BF007208BE003E0880
:10025000AE00AF01B001B1013108B8003008B700FD
:100260002F08B6002E08B5003F08AE00AF01B00160
:10027000B1013108BD003008BC002F08BB002E08BA
:10028000BA002708F2002B0887315D2780317308F8
:100290004001BF007208BE003E08AE00AF01B001D1
:1002A000B1012E08B5072F08B63D3008B73D31081B
:1002B000B83D3F08AE00AF01B001B1012E08BA074A
:1002C0002F08BB3D3008BC3D3108BD3D2808F20079
:1002D0002A0887315D27803173084001BF0072080A
:1002E000BE003E08AE00AF01B001B1012E08B50757
:1002F0002F08B63D3008B73D3108B83D3F08AE0085
:10030000AF01B001B1012E08BA072F08BB3D30087C
:10031000BC3D3108BD3D0830B535B60DB70DB80D43
:10032000890B8C292708F2002A0887315D27803144
:1003300073084001BF007208BE003E08B5073F08C1
:10034000B63D0030B73DB83D2608F2002B08873196
:100350005D27803173084001BF007208BE003E086F
:10036000B5073F08B63D0030B73DB83D0830B5355C
:10037000B60DB70DB80D890BB7292608F2002A086B
:1003800087315D27803173084001BF007208BE00CD
:100390003E08B5073F08B63D0030B73DB83D2708D9
:1003A000F2002C0887315D27803173084001BF00BF
:1003B0007208BE003E08BA073F08BB3D0030BC3D96
:1003C000BD3D2808F2002B0887315D278031730876
:1003D0004001BF007208BE003E08BA073F08BB3D9F
:1003E0000030BC3DBD3D2808F2002C0887315D2758
:1003F000803173084001BF007208BE003E08AE00A5
:100400003F08AF00B001B1010830AE35AF0DB00DFF
:10041000B10D890B052A2E08BA072F08BB3D3008FD
:10042000BC3D3108BD3D3508AE003608AF00370889
:10043000B0003808B1001830B136B00CAF0CAE0CBB
:10044000890B1C2A2E08BA072F08BB3D3008BC3D7B
:100450003108BD3D0830B535B60DB70DB80D890B67
:100460002B2A39083407AE00AF01AF0D2E08823EAB
:10047000BE00FF302F3DBF00542A0130BA35BB0DFE
:10048000BC0DBD0D890B3E2AB81F472A482A492AB0
:100490003A140130B535B60DB70DB80D890B4A2A9F
:1004A000FF30BE07FF30BF3DBC1F572A582A3D2AE8
:1004B000B401B81F5C2A5D2A792AFF303505AE00E9
:1004C000FF303605AF00FF303705B0007F3038050C
:1004D000B100310830042F042E040319702A712A48
:1004E000742AB401B40A792A3A1C772A782A792A1C
:1004F000712A340803197D2A7E2AA62A0130BA07F8
:100500000030BB3D0030BC3D0030BD3D3D1C892A64
:100510008A2AA62A3A08AE003B08AF003C08B00081
:100520003D08B1000130B200B137B00CAF0CAE0CD9
:10053000B20B942A3108BD003008BC002F08BB0064
:100540002E08BA000130BE070030BF3D3F08803A98
:10055000AE0080302E02031DAF2AFF303E02031C86
:10056000B22AB32ABD2A7F304001BD008030BC00D2
:100570000030BB000030BA00E82A40013F08803A52
:10058000AE0080302E02031DC72A01303E02031840
:10059000CA2ACB2AD62A00304001BD000030BC0058
:1005A0000030BB000030BA00B301E82A40013E0829
:1005B000B900FF30BA05FF30BB057F30BC05003005
:1005C000BD05391CE42AE52AE62ABC173936BD00E8
:1005D0003308AE002E08BD043D08A9003C08A80061
:1005E0003B08A7003A08A60008008F31C5278231D2
:1005F0006830F2000F30F3008E31EF2682318B1716
:100600000B174001550856040319072B082B4C2BD8
:1006100014308731E527823173084001DA0072080F
:10062000D9005908E9075A08EA3D6908F2006A0842
:10063000F300890D893B8909F400F500013084310C
:100640002E24823175084001AD007408AC00730897
:10065000AB007208AA003F30A9000030A8000030AB
:10066000A7000030A6008031BA208231400129085D
:10067000C3002808C2002708C1002608C000843132
:10068000D924823140014108DA004008D9005A08D3
:10069000EA005908E9005D2B14308731E5278231E3
:1006A00073084001DA007208D9005A08EA005908B4
:1006B000E9000130D5000030D6005808803ACA0061
:1006C00080304A02031D662B013057020318692B44
:1006D0006A2B012B02304001D7000030D8000130D6
:1006E000CA004A08EF077B306F02031C782B792B76
:1006F0007B2B6130EF000030F4009030F5008F313B
:100700007C27823140016F088731352782311C30C8
:10071000F4009030F5008F317C27823140015A0877
:10072000803ACA0083304A02031D982BE8305902F0
:10073000031C9B2B9C2BBA2B0A304001A4000030D9
:10074000A500E830F2000330F3005A08F50059081C
:10075000F40085314A25823173084001A7007208F0
:10076000A6008531AA25823140012408303E873118
:100770003527823140015A08803ACA0080304A0247
:10078000031DC42B64305902031CC72BC82BE62B56
:100790000A304001A4000030A5006430F2000030AF
:1007A000F3005A08F5005908F40085314A258231D2
:1007B00073084001A7007208A6008531AA2582317E
:1007C00040012408303E87313527823140015A08E4
:1007D000803ACA0080304A02031DF02B0A305902C9
:1007E000031CF32BF42B122C0A304001A400003020
:1007F000A5000A30F2000030F3005A08F50059084D
:10080000F40085314A25823173084001A70072083F
:10081000A6008531AA25823140012408303E873167
:10082000352782310A304001A4000030A5005A0863
:10083000A7005908A6008531AA2582314001240865
:10084000303E8731352782311430F4009030F50086
:100850008F317C278231012B803161284001A0003B
:1008600020080319342C352C492CF51F382C392C31
:10087000492C7209A2007309A3007409A400750928
:10088000A500A20A0319A30A0319A40A0319A50AB9
:10089000512C7508A5007408A4007308A300720801
:1008A000A2007508740473047204031D582C592C9B
:1008B000622C0030F5000030F4000030F30000300E
:1008C000F200D82C9630A100702C0130F60076088A
:1008D000A1070130A536A40CA30CA20C890B6A2C2D
:1008E000FE302505031D752C762C652C8A2C0130D5
:1008F000F6007608A1070130A2070030A33D0030C2
:10090000A43D0030A53D0130A536A40CA30CA20CDB
:10091000890B842CFF302505031D8F2C902C772C00
:100920009A2C0130A1020130A235A30DA40DA50D12
:10093000890B942CA41B9D2C9E2CA42C02302102EC
:100940000318A32CA42C912C2118A72CA82CB02C74
:10095000FF30A205FF30A3057F30A405FF30A505B9
:100960000310A10C2108F600F701F801F901183075
:10097000F635F70DF80DF90D890BB82C7608A204A1
:100980007708A3047808A4047908A50420080319AB
:10099000CA2CCB2CD02CF51FCE2CCF2CD02CA517AD
:1009A0002508F5002408F4002308F3002208F200CB
:1009B000080003104001420D430DC9004908031D02
:1009C000E22CE32CEC2C0030C3000030C2000030DD
:1009D000C1000030C000492D4008C4004108C500D6
:1009E0004208C6004308C7001F30C736C60CC50CF6
:1009F000C40C890BF52C4408C800C217FF30C00591
:100A0000FF30C105FF30C2050030C3059630C90272
:100A1000C91F0B2D0C2D242D4908803A973E031831
:100A2000122D132D142DE32C0130C336C20CC10C32
:100A3000C00C890B152D0130C4004408C907031DE3
:100A4000222D232D142D392D20304902031C292D50
:100A50002A2D342DE32C0130C035C10DC20DC30D3C
:100A6000890B2C2D0130C9024908031D382D392D61
:100A70002B2D480803193D2D3E2D492DC009C109D4
:100A8000C209C309C00A0319C10A0319C20A03191A
:100A9000C30A08004001A101F31F4F2D502D572D0F
:100AA000F209F309F20A0319F30AA101A10AF51FD9
:100AB0005A2D5B2D642DF409F509F40A0319F50A82
:100AC0000130F6007608A106A201A30172087304A2
:100AD00003196B2D6C2D9B2DA001A00A782D0130E0
:100AE000F235F30D890B702D0130F6007608A00762
:100AF000F31F7B2D7C2D6F2D0130A235A30D890BAB
:100B00007D2D73087502031D872D72087402031C66
:100B10008A2D8B2D902D7208F4027308F53B221458
:100B20000130F336F20C890B912D0130A002031D28
:100B30009A2D9B2D7C2D210803199F2DA02DA52DCD
:100B4000A209A309A20A0319A30A2308F300220891
:100B5000F2000800F9014001A71FAF2DB02DB72DFD
:100B6000A609A709A60A0319A70AF901F90AA51FE8
:100B7000BA2DBB2DC02DA409A509A40A0319A50AE5
:100B8000240825040319C52DC62DEF2DF801F80AF8
:100B9000D22D0130A435A50D890BCA2D0130F700E7
:100BA0007708F807A51FD52DD62DC92D25082702B2
:100BB000031DDC2D24082602031CDF2DE02DE42D6F
:100BC0002408A6022508A73B0130A536A40C890BF2
:100BD000E52D0130F802031DEE2DEF2DD62D7908FD
:100BE0000319F32DF42DF92DA609A709A60A031957
:100BF000A70A2708A5002608A400080040019801BC
:100C0000990120309A001630920050309300DA306B
:100C10009400DC307E01CE005030C300B801C40126
:100C2000B9014030CF00BA01C501D0011F30BB006F
:100C3000C6013F30D1003F30BC00C7013F30D20079
:100C4000D510D410D3149C30F2000E30F3008E3146
:100C5000E92685314E0116160B307E01A0000230C8
:100C60007D01C3000F307E0195000B30A2001130D2
:100C7000900001307D01CD000430CB0008004E0112
:100C80009913BB30F2000630F3008E31DD26863139
:100C90004E0119138130F2000730F3008E31E32644
:100CA0008631083054019F0090309D0024309E0012
:100CB00040309B0003309C009B30F2000E30F3006C
:100CC0008E31D1268631A930F2000E30F3008E31FC
:100CD000D7268631A530F2000E30F3008E31CB26B8
:100CE00086314001DF01E301E2010830ED00FA0145
:100CF000E101E0014E01991708004E019912F83008
:100D0000F2000630F3008E31BF2686314E011912F3
:100D1000A330F2000730F3008E31C526863108304B
:100D200042019F0090309D0024309E0040309B0087
:100D300003309C009A30F2000E30F3008E31B3265F
:100D40008631A130F2000E30F3008E31B9268631A3
:100D50009D30F2000E30F3008E31AD268631400119
:100D6000E401E801E7010830EE00FB01E601E501DE
:100D70004E01991608007A08A03E860001308700CF
:100D8000810154011D1DC52EC62ED22E7A08A03E0B
:100D9000860001308700811441014B088A004A080F
:100DA0000A00863154019D1CD62ED72EE32E7A08D8
:100DB000A03E8600013087000115410149088A00E4
:100DC00048080A0086317A08A03E86000130870074
:100DD00001080319EC2EED2EF42E410147088A007C
:100DE00046080A008631F72E8F31AC27863108007D
:100DF0007B08203E860001308700810142011D1DD5
:100E0000022F032F0F2F7B08203E86000130870022
:100E10008114410155088A0054080A0087314201B3
:100E20009D1C132F142F202F7B08203E860001309D
:100E300087000115410153088A0052080A008731D2
:100E40007B08203E86000130870001080319292F06
:100E50002A2F312F410151088A0050080A0087319A
:100E6000342F8F31932786310800F30040016E083C
:100E700003193B2F3C2F362F4E01191A402F412FBB
:100E8000452F730842019A005A2F19124001680831
:100E9000B23E86008701730881000130F2007208BB
:100EA000E80708306802031C562F572F582FE80117
:100EB0000130EE024E01191608004001A400A00105
:100EC000A1017208F400F5017408A2007508A300DE
:100ED000241C6B2F6C2F702F2208A0072308A13D24
:100EE0000130A235A30D890B712F0310A40C240827
:100EF000031D7B2F7C2F682F2108F3002008F200B0
:100F00000800083040016D020318872F882FA02F9A
:100F10006208AA3E86008701010854019A00013048
:100F2000F00070084001E20708306202031C992FAC
:100F30009A2F9B2FE2010130F0007008ED07A22FDD
:100F40004E0119130800083040016E020318A92F42
:100F5000AA2FC22F6708B23E86008701010842010E
:100F60009A000130F00070084001E707083067027E
:100F7000031CBB2FBC2FBD2FE7010130F000700810
:100F8000EE07C42F4E011912080044018F01900191
:100F90000330910063308D00C0308C004E01101082
:100FA00044010D084001EC0044010C084001EB0035
:100FB0004E011A140230F2000030F3008E31EF2699
:100FC0008731353044018E000800F5007508F400C3
:100FD000F40DF40D41011D087406033974069D00DB
:100FE0001D140D30890BF22F000041019D149D1836
:100FF000FA2FFB2FF72F1C08F3001B08F200080044
:101D34000800080008008F3193278E310800420103
:101D44001D121D1608008F31AC278E310800540176
:101D54001D121D16080073084101D1007208D0003D
:101D6400080073084101D5007208D4000800730804
:101D74004101D3007208D200080073084101D70062
:101D84007208D600080073084101D9007208D8000F
:101D9400080073084101C7007208C60008007308F0
:101DA4004101CB007208CA00080073084101C90050
:101DB4007208C800080073084101CD007208CC0005
:101DC400080073084101CF007208CE0008007308B0
:101DD4004101DB007208DA00080073084101C50004
:101DE4007208C40008004F019601970198019901F7
:101DF4009A019B0108008030460196001C30950032
:101E04008030940008007E01D51C092F0A2F0D2F65
:101E14008F3148278F310800E03041019E009F0137
:101E24009B019C0101309D000800603051018D0030
:101E34008F01910106309300900192010800640023
:101E4400800101310130FE020030FF3B7F087E0437
:101E5400031D222F00344101440845040319332F84
:101E6400342F392F45088A0044080A008F310800AE
:101E74000130450190008F0191014F308D008C019C
:101E84004E019010803045018E00080041015A082F
:101E94005B0403194E2F4F2F542F5B088A005A08F6
:101EA4000A008F317E01D510080044010E1D5B2FFE
:101EB4005C2F632F0E1071088D0070088C000E14B7
:101EC400672F71088D0070088C00080040015808C5
:101ED400803AF00080307002031D722F01305702E7
:101EE400031C752F762F7B2FFF304001D707FF305F
:101EF400D83D0800892F74088400750885000008FF
:101F0400873135278F310130F4070030F53D7408EF
:101F14008400750885001200031D912F922F7D2FD8
:101F240008007B08203E8600023087004201190821
:101F340081000130F0007008FB0740307B02031C75
:101F4400A42FA52FA62FFB010130F000700840013B
:101F5400E50708007A08A03E860002308700540195
:101F6400190881000130F0007008FA0740307A0245
:101F7400031CBD2FBE2FBF2FFA010130F0007008E3
:101F84004001E00708008E31F5268F318531FE25AA
:101F94008F318F3117278F318F310E278F318E314B
:101FA400FD268F318F313A278F318731C5278F3105
:101FB40086317D268F3186313F268F3108004E01D0
:101FC400101040016C08F1006B08F0008F315727A6
:101FD4008F3101304001DB070030DC3D00305C0212
:101FE400643003195B02031CF82FF92FFF2F8F3184
:101FF4002D278F314001DB01DC0108002A34303405
:1020040030343034303430343034303430342C34B0
:10201400303430343034303430343034303430349C
:102024002C340034243473346C34613476346534A1
:102034000A3400342C3444342C3472342C340034B8
:020000040001F9
:08000000FF3FFF3FFF3FFF3F00
:0A000E00EC3FFF3F9F3FEF3FFF3F35
:00000001FF
